:100000000EC028C033C026C025C024C023C022C0D3
:1000100021C020C01FC01EC079C01CC01BC011243D
:100020001FBECFE5D2E0DEBFCDBF10E0A0E6B0E05E
:10003000EAEAF1E002C005900D92A836B107D9F7BF
:1000400020E0A8E6B0E001C01D92AB36B207E1F7B0
:1000500094D0A9C0D5CF109269001092680081B5E4
:10006000856081BD81B5886481BD08951F920F921E
:100070000FB60F9211242F933F934F935F936F937B
:100080007F938F939F93AF93BF93EF93FF93E3DFA0
:10009000FF91EF91BF91AF919F918F917F916F9160
:1000A0005F914F913F912F910F900FBE0F901F9036
:1000B000189584B714BE81B5886181BD81B511BC26
:1000C000089580916A00873010F010926A00E091E4
:1000D0006A00F0E0E05AFF4F808197B3982B97BBFE
:1000E00098B3982B98BBE1EEF4E03197F1F700C09C
:1000F000000028B391E0811190E0922398BB17BAD9
:1001000080916A008F5F80936A0008951F920F921A
:100110000FB60F9211242F933F934F935F936F93DA
:100120007F938F939F93AF93BF93EF93FF93C9DF19
:100130008091680090916900019690936900809386
:1001400068008091680090916900CD9714F0B1DF4C
:1001500003C081B5806481BDFF91EF91BF91AF91E4
:100160009F918F917F916F915F914F913F912F91CF
:100170000F900FBE0F901F90189516B88FE080BD9E
:10018000AB9A8BB780628BBF94DF9BDF789485B787
:10019000877E806185BF85B7806285BF889585B77A
:0A01A0008F7D85BFF4CFF894FFCFE8
:0801AA00010204030506070031
:00000001FF
